{
  "_format": "hh-sol-artifact-1",
  "contractName": "VNYPaymentHandler",
  "sourceName": "contracts/VNYPaymentHandler.sol",
  "abi": [
    {
      "inputs": [],
      "stateMutability": "nonpayable",
      "type": "constructor"
    },
    {
      "anonymous": false,
      "inputs": [
        {
          "indexed": true,
          "internalType": "address",
          "name": "previousOwner",
          "type": "address"
        },
        {
          "indexed": true,
          "internalType": "address",
          "name": "newOwner",
          "type": "address"
        }
      ],
      "name": "OwnershipTransferred",
      "type": "event"
    },
    {
      "inputs": [],
      "name": "burnPercent",
      "outputs": [
        {
          "internalType": "uint256",
          "name": "",
          "type": "uint256"
        }
      ],
      "stateMutability": "view",
      "type": "function"
    },
    {
      "inputs": [
        {
          "internalType": "uint256",
          "name": "bAmount",
          "type": "uint256"
        }
      ],
      "name": "buyback",
      "outputs": [],
      "stateMutability": "nonpayable",
      "type": "function"
    },
    {
      "inputs": [],
      "name": "contractPercent",
      "outputs": [
        {
          "internalType": "uint256",
          "name": "",
          "type": "uint256"
        }
      ],
      "stateMutability": "view",
      "type": "function"
    },
    {
      "inputs": [],
      "name": "contractWallet",
      "outputs": [
        {
          "internalType": "address",
          "name": "",
          "type": "address"
        }
      ],
      "stateMutability": "view",
      "type": "function"
    },
    {
      "inputs": [],
      "name": "deadAddress",
      "outputs": [
        {
          "internalType": "address",
          "name": "",
          "type": "address"
        }
      ],
      "stateMutability": "view",
      "type": "function"
    },
    {
      "inputs": [],
      "name": "divider",
      "outputs": [
        {
          "internalType": "uint256",
          "name": "",
          "type": "uint256"
        }
      ],
      "stateMutability": "view",
      "type": "function"
    },
    {
      "inputs": [],
      "name": "feeToken",
      "outputs": [
        {
          "internalType": "contract ERC20",
          "name": "",
          "type": "address"
        }
      ],
      "stateMutability": "view",
      "type": "function"
    },
    {
      "inputs": [],
      "name": "operatorAddress",
      "outputs": [
        {
          "internalType": "address",
          "name": "",
          "type": "address"
        }
      ],
      "stateMutability": "view",
      "type": "function"
    },
    {
      "inputs": [],
      "name": "owner",
      "outputs": [
        {
          "internalType": "address",
          "name": "",
          "type": "address"
        }
      ],
      "stateMutability": "view",
      "type": "function"
    },
    {
      "inputs": [
        {
          "internalType": "uint256",
          "name": "feeAmount",
          "type": "uint256"
        }
      ],
      "name": "pay",
      "outputs": [],
      "stateMutability": "nonpayable",
      "type": "function"
    },
    {
      "inputs": [],
      "name": "renounceOwnership",
      "outputs": [],
      "stateMutability": "nonpayable",
      "type": "function"
    },
    {
      "inputs": [
        {
          "internalType": "uint256",
          "name": "_burnPercent",
          "type": "uint256"
        }
      ],
      "name": "setBurnPercent",
      "outputs": [],
      "stateMutability": "nonpayable",
      "type": "function"
    },
    {
      "inputs": [
        {
          "internalType": "uint256",
          "name": "_contractPercent",
          "type": "uint256"
        }
      ],
      "name": "setContractPercent",
      "outputs": [],
      "stateMutability": "nonpayable",
      "type": "function"
    },
    {
      "inputs": [
        {
          "internalType": "address",
          "name": "_contractWallet",
          "type": "address"
        }
      ],
      "name": "setContractWallet",
      "outputs": [],
      "stateMutability": "nonpayable",
      "type": "function"
    },
    {
      "inputs": [
        {
          "internalType": "uint256",
          "name": "_divider",
          "type": "uint256"
        }
      ],
      "name": "setDivider",
      "outputs": [],
      "stateMutability": "nonpayable",
      "type": "function"
    },
    {
      "inputs": [
        {
          "internalType": "address",
          "name": "_operatorAddress",
          "type": "address"
        }
      ],
      "name": "setOperatorAddress",
      "outputs": [],
      "stateMutability": "nonpayable",
      "type": "function"
    },
    {
      "inputs": [
        {
          "internalType": "uint256",
          "name": "_teamPercent",
          "type": "uint256"
        }
      ],
      "name": "setTeamPercent",
      "outputs": [],
      "stateMutability": "nonpayable",
      "type": "function"
    },
    {
      "inputs": [
        {
          "internalType": "address",
          "name": "_teamWallet",
          "type": "address"
        }
      ],
      "name": "setTeamWallet",
      "outputs": [],
      "stateMutability": "nonpayable",
      "type": "function"
    },
    {
      "inputs": [],
      "name": "swapAllTokensForEth",
      "outputs": [],
      "stateMutability": "nonpayable",
      "type": "function"
    },
    {
      "inputs": [],
      "name": "teamPercent",
      "outputs": [
        {
          "internalType": "uint256",
          "name": "",
          "type": "uint256"
        }
      ],
      "stateMutability": "view",
      "type": "function"
    },
    {
      "inputs": [],
      "name": "teamWallet",
      "outputs": [
        {
          "internalType": "address",
          "name": "",
          "type": "address"
        }
      ],
      "stateMutability": "view",
      "type": "function"
    },
    {
      "inputs": [
        {
          "internalType": "address",
          "name": "newOwner",
          "type": "address"
        }
      ],
      "name": "transferOwnership",
      "outputs": [],
      "stateMutability": "nonpayable",
      "type": "function"
    },
    {
      "stateMutability": "payable",
      "type": "receive"
    }
  ],
  "bytecode": "0x60a06040526ddead00000000000000000000000060805234801561002257600080fd5b5061003361002e6100c3565b6100c7565b60018055600480546001600160a01b031990811673d439b09e7aebf2f00d0e1985ed8cea136b37a5bc908117909255601e6005556064600655600f600855600780548216909217909155600a805560098054821673dead1337f2ede31413cb39b0cf97909b6f107db617905560028054909116739ac64cc6e4415144c455bd8e4837fea55603e5c3179055610117565b3390565b600080546001600160a01b038381166001600160a01b0319831681178455604051919092169283917f8be0079c531659141344cd1fd0a4f28419497f9722a3daafe3b4186f6b6457e09190a35050565b60805160601c61145b610143600039600081816104f20152818161078f0152610ccc015261145b6000f3fe6080604052600436106101395760003560e01c806379a9fa1c116100ab578063bb1570da1161006f578063bb1570da146102fc578063c290d6911461031c578063c8e706e21461033c578063e164ac5014610351578063eacf19d714610366578063f2fde38b1461038657610140565b806379a9fa1c14610272578063893fe0be146102925780638da5cb5b146102b2578063949e6302146102c75780639bb57718146102e757610140565b80632f1d5a60116100fd5780632f1d5a60146101de57806333b6cccf146101fe578063378efa371461021e5780635992704414610233578063647846a514610248578063715018a61461025d57610140565b806303807ee514610145578063127effb2146101705780631525ff7d14610192578063266ecfe3146101b457806327c8f835146101c957610140565b3661014057005b600080fd5b34801561015157600080fd5b5061015a6103a6565b604051610167919061131b565b60405180910390f35b34801561017c57600080fd5b506101856103ac565b60405161016791906110be565b34801561019e57600080fd5b506101b26101ad366004610fd7565b6103bb565b005b3480156101c057600080fd5b506101b2610425565b3480156101d557600080fd5b506101856104f0565b3480156101ea57600080fd5b506101b26101f9366004610fd7565b610514565b34801561020a57600080fd5b506101b261021936600461102f565b610536565b34801561022a57600080fd5b5061015a61057a565b34801561023f57600080fd5b50610185610580565b34801561025457600080fd5b5061018561058f565b34801561026957600080fd5b506101b261059e565b34801561027e57600080fd5b506101b261028d36600461102f565b6105e9565b34801561029e57600080fd5b506101b26102ad36600461102f565b61063e565b3480156102be57600080fd5b50610185610682565b3480156102d357600080fd5b506101b26102e236600461102f565b610691565b3480156102f357600080fd5b5061015a6106d5565b34801561030857600080fd5b506101b261031736600461102f565b6106db565b34801561032857600080fd5b506101b261033736600461102f565b61071f565b34801561034857600080fd5b5061018561086f565b34801561035d57600080fd5b5061015a61087e565b34801561037257600080fd5b506101b2610381366004610fd7565b610884565b34801561039257600080fd5b506101b26103a1366004610fd7565b6108e5565b60055481565b600b546001600160a01b031681565b6103c3610953565b6001600160a01b03166103d4610682565b6001600160a01b0316146104035760405162461bcd60e51b81526004016103fa90611265565b60405180910390fd5b600980546001600160a01b0319166001600160a01b0392909216919091179055565b61042d610953565b600b546001600160a01b0390811691161461045a5760405162461bcd60e51b81526004016103fa9061123a565b600480546040516370a0823160e01b81526000926001600160a01b03909216916370a082319161048c913091016110be565b60206040518083038186803b1580156104a457600080fd5b505afa1580156104b8573d6000803e3d6000fd5b505050506040513d601f19601f820116820180604052508101906104dc9190611047565b905080156104ed576104ed81610957565b50565b7f000000000000000000000000000000000000000000000000000000000000000081565b600b80546001600160a01b0319166001600160a01b0392909216919091179055565b61053e610953565b6001600160a01b031661054f610682565b6001600160a01b0316146105755760405162461bcd60e51b81526004016103fa90611265565b600855565b60065481565b6009546001600160a01b031681565b6004546001600160a01b031681565b6105a6610953565b6001600160a01b03166105b7610682565b6001600160a01b0316146105dd5760405162461bcd60e51b81526004016103fa90611265565b6105e76000610b5a565b565b6105f1610953565b6001600160a01b0316610602610682565b6001600160a01b0316146106285760405162461bcd60e51b81526004016103fa90611265565b478181111561063a5761063a82610baa565b5050565b610646610953565b6001600160a01b0316610657610682565b6001600160a01b03161461067d5760405162461bcd60e51b81526004016103fa90611265565b600655565b6000546001600160a01b031690565b610699610953565b6001600160a01b03166106aa610682565b6001600160a01b0316146106d05760405162461bcd60e51b81526004016103fa90611265565b600a55565b60085481565b6106e3610953565b6001600160a01b03166106f4610682565b6001600160a01b03161461071a5760405162461bcd60e51b81526004016103fa90611265565b600555565b6000811161073f5760405162461bcd60e51b81526004016103fa906111bd565b600454610757906001600160a01b0316333084610d43565b600061077a60065461077460055485610da190919063ffffffff16565b90610db4565b6004549091506107b4906001600160a01b03167f000000000000000000000000000000000000000000000000000000000000000083610dc0565b60006107d160065461077460085486610da190919063ffffffff16565b6007546004549192506107f1916001600160a01b03908116911683610dc0565b60004790506000610813600654610774600a5488610da190919063ffffffff16565b905061081e81610957565b600061082a4784610de4565b600954909150610843906001600160a01b031682610df0565b600061085b8361085587818b8b610de4565b90610de4565b905061086681610957565b50505050505050565b6007546001600160a01b031681565b600a5481565b61088c610953565b6001600160a01b031661089d610682565b6001600160a01b0316146108c35760405162461bcd60e51b81526004016103fa90611265565b600780546001600160a01b0319166001600160a01b0392909216919091179055565b6108ed610953565b6001600160a01b03166108fe610682565b6001600160a01b0316146109245760405162461bcd60e51b81526004016103fa90611265565b6001600160a01b03811661094a5760405162461bcd60e51b81526004016103fa90611177565b6104ed81610b5a565b3390565b604080516002808252606082018352600092602083019080368337505060045482519293506001600160a01b0316918391506000906109a657634e487b7160e01b600052603260045260246000fd5b6001600160a01b03928316602091820292909201810191909152600254604080516315ab88c960e31b81529051919093169263ad5c4648926004808301939192829003018186803b1580156109fa57600080fd5b505afa158015610a0e573d6000803e3d6000fd5b505050506040513d601f19601f82011682018060405250810190610a329190610ff3565b81600181518110610a5357634e487b7160e01b600052603260045260246000fd5b6001600160a01b0392831660209182029290920101526004805460025460405163095ea7b360e01b81529184169363095ea7b393610a989392909116918791016110f6565b602060405180830381600087803b158015610ab257600080fd5b505af1158015610ac6573d6000803e3d6000fd5b505050506040513d601f19601f82011682018060405250810190610aea919061100f565b5060025460405163791ac94760e01b81526001600160a01b039091169063791ac94790610b24908590600090869030904290600401611324565b600060405180830381600087803b158015610b3e57600080fd5b505af1158015610b52573d6000803e3d6000fd5b505050505050565b600080546001600160a01b038381166001600160a01b0319831681178455604051919092169283917f8be0079c531659141344cd1fd0a4f28419497f9722a3daafe3b4186f6b6457e09190a35050565b6040805160028082526060820183526000926020830190803683375050600254604080516315ab88c960e31b815290519394506001600160a01b039091169263ad5c464892506004808301926020929190829003018186803b158015610c0f57600080fd5b505afa158015610c23573d6000803e3d6000fd5b505050506040513d601f19601f82011682018060405250810190610c479190610ff3565b81600081518110610c6857634e487b7160e01b600052603260045260246000fd5b6001600160a01b039283166020918202929092010152600454825191169082906001908110610ca757634e487b7160e01b600052603260045260246000fd5b6001600160a01b0392831660209182029290920101526002541663b6f9de95836000847f0000000000000000000000000000000000000000000000000000000000000000610cf74261012c610e26565b6040518663ffffffff1660e01b8152600401610d16949392919061110f565b6000604051808303818588803b158015610d2f57600080fd5b505af1158015610866573d6000803e3d6000fd5b610d9b846323b872dd60e01b858585604051602401610d64939291906110d2565b60408051601f198184030181529190526020810180516001600160e01b03166001600160e01b031990931692909217909152610e32565b50505050565b6000610dad8284611398565b9392505050565b6000610dad8284611378565b610ddf8363a9059cbb60e01b8484604051602401610d649291906110f6565b505050565b6000610dad82846113b7565b6040516001600160a01b0383169082156108fc029083906000818181858888f19350505050158015610ddf573d6000803e3d6000fd5b6000610dad8284611360565b6000610e87826040518060400160405280602081526020017f5361666545524332303a206c6f772d6c6576656c2063616c6c206661696c6564815250856001600160a01b0316610ec19092919063ffffffff16565b805190915015610ddf5780806020019051810190610ea5919061100f565b610ddf5760405162461bcd60e51b81526004016103fa906112d1565b6060610ed08484600085610ed8565b949350505050565b606082471015610efa5760405162461bcd60e51b81526004016103fa906111f4565b610f0385610f98565b610f1f5760405162461bcd60e51b81526004016103fa9061129a565b600080866001600160a01b03168587604051610f3b91906110a2565b60006040518083038185875af1925050503d8060008114610f78576040519150601f19603f3d011682016040523d82523d6000602084013e610f7d565b606091505b5091509150610f8d828286610f9e565b979650505050505050565b3b151590565b60608315610fad575081610dad565b825115610fbd5782518084602001fd5b8160405162461bcd60e51b81526004016103fa9190611144565b600060208284031215610fe8578081fd5b8135610dad81611410565b600060208284031215611004578081fd5b8151610dad81611410565b600060208284031215611020578081fd5b81518015158114610dad578182fd5b600060208284031215611040578081fd5b5035919050565b600060208284031215611058578081fd5b5051919050565b6000815180845260208085019450808401835b838110156110975781516001600160a01b031687529582019590820190600101611072565b509495945050505050565b600082516110b48184602087016113ce565b9190910192915050565b6001600160a01b0391909116815260200190565b6001600160a01b039384168152919092166020820152604081019190915260600190565b6001600160a01b03929092168252602082015260400190565b600085825260806020830152611128608083018661105f565b6001600160a01b03949094166040830152506060015292915050565b60006020825282518060208401526111638160408501602087016113ce565b601f01601f19169190910160400192915050565b60208082526026908201527f4f776e61626c653a206e6577206f776e657220697320746865207a65726f206160408201526564647265737360d01b606082015260800190565b6020808252601d908201527f666565206d7573742062652067726561746572207468616e207a65726f000000604082015260600190565b60208082526026908201527f416464726573733a20696e73756666696369656e742062616c616e636520666f6040820152651c8818d85b1b60d21b606082015260800190565b60208082526011908201527027b7363c903337b91037b832b930ba37b960791b604082015260600190565b6020808252818101527f4f776e61626c653a2063616c6c6572206973206e6f7420746865206f776e6572604082015260600190565b6020808252601d908201527f416464726573733a2063616c6c20746f206e6f6e2d636f6e7472616374000000604082015260600190565b6020808252602a908201527f5361666545524332303a204552433230206f7065726174696f6e20646964206e6040820152691bdd081cdd58d8d9595960b21b606082015260800190565b90815260200190565b600086825285602083015260a0604083015261134360a083018661105f565b6001600160a01b0394909416606083015250608001529392505050565b60008219821115611373576113736113fa565b500190565b60008261139357634e487b7160e01b81526012600452602481fd5b500490565b60008160001904831182151516156113b2576113b26113fa565b500290565b6000828210156113c9576113c96113fa565b500390565b60005b838110156113e95781810151838201526020016113d1565b83811115610d9b5750506000910152565b634e487b7160e01b600052601160045260246000fd5b6001600160a01b03811681146104ed57600080fdfea2646970667358221220d0e0ee9713e3d12d9d095c973eab0bfd495cb1bc783b5eb8454e5f09ac9360c764736f6c63430008000033",
  "linkReferences": {},
  "deployedLinkReferences": {}
}