{
  "_format": "hh-sol-artifact-1",
  "contractName": "Ownable",
  "sourceName": "contracts/Vanity.sol",
  "abi": [
    {
      "anonymous": false,
      "inputs": [
        {
          "indexed": true,
          "internalType": "address",
          "name": "previousOwner",
          "type": "address"
        },
        {
          "indexed": true,
          "internalType": "address",
          "name": "newOwner",
          "type": "address"
        }
      ],
      "name": "OwnershipTransferred",
      "type": "event"
    },
    {
      "inputs": [],
      "name": "_owner",
      "outputs": [
        {
          "internalType": "address",
          "name": "",
          "type": "address"
        }
      ],
      "stateMutability": "view",
      "type": "function"
    },
    {
      "inputs": [],
      "name": "geUnlockTime",
      "outputs": [
        {
          "internalType": "uint256",
          "name": "",
          "type": "uint256"
        }
      ],
      "stateMutability": "view",
      "type": "function"
    },
    {
      "inputs": [
        {
          "internalType": "uint256",
          "name": "time",
          "type": "uint256"
        }
      ],
      "name": "lock",
      "outputs": [],
      "stateMutability": "nonpayable",
      "type": "function"
    },
    {
      "inputs": [],
      "name": "owner",
      "outputs": [
        {
          "internalType": "address",
          "name": "",
          "type": "address"
        }
      ],
      "stateMutability": "view",
      "type": "function"
    },
    {
      "inputs": [],
      "name": "renounceOwnership",
      "outputs": [],
      "stateMutability": "nonpayable",
      "type": "function"
    },
    {
      "inputs": [
        {
          "internalType": "address",
          "name": "newOwner",
          "type": "address"
        }
      ],
      "name": "transferOwnership",
      "outputs": [],
      "stateMutability": "nonpayable",
      "type": "function"
    },
    {
      "inputs": [],
      "name": "unlock",
      "outputs": [],
      "stateMutability": "nonpayable",
      "type": "function"
    }
  ],
  "bytecode": "0x6080604052600080546001600160a01b031916738a6aae4b05601cde4cecbb99941f724d7292867b17905534801561003657600080fd5b50610533806100466000396000f3fe608060405234801561001057600080fd5b506004361061007d5760003560e01c8063b2bdfa7b1161005b578063b2bdfa7b146100b2578063b6c52324146100ba578063dd467064146100cf578063f2fde38b146100e25761007d565b8063715018a6146100825780638da5cb5b1461008c578063a69df4b5146100aa575b600080fd5b61008a6100f5565b005b61009461016b565b6040516100a191906103a7565b60405180910390f35b61008a61017a565b610094610214565b6100c2610223565b6040516100a191906104b0565b61008a6100dd36600461038f565b610229565b61008a6100f0366004610361565b6102b9565b6100fd61035d565b6000546001600160a01b039081169116146101335760405162461bcd60e51b815260040161012a90610401565b60405180910390fd5b600080546040516001600160a01b03909116906000805160206104de833981519152908390a3600080546001600160a01b0319169055565b6000546001600160a01b031690565b6001546001600160a01b031633146101a45760405162461bcd60e51b815260040161012a9061046d565b60025442116101c55760405162461bcd60e51b815260040161012a90610436565b600154600080546040516001600160a01b0393841693909116916000805160206104de83398151915291a3600154600080546001600160a01b0319166001600160a01b03909216919091179055565b6000546001600160a01b031681565b60025490565b61023161035d565b6000546001600160a01b0390811691161461025e5760405162461bcd60e51b815260040161012a90610401565b60008054600180546001600160a01b03199081166001600160a01b0384161790915516905561028d81426104b9565b600255600080546040516001600160a01b03909116906000805160206104de833981519152908390a350565b6102c161035d565b6000546001600160a01b039081169116146102ee5760405162461bcd60e51b815260040161012a90610401565b6001600160a01b0381166103145760405162461bcd60e51b815260040161012a906103bb565b600080546040516001600160a01b03808516939216916000805160206104de83398151915291a3600080546001600160a01b0319166001600160a01b0392909216919091179055565b3390565b600060208284031215610372578081fd5b81356001600160a01b0381168114610388578182fd5b9392505050565b6000602082840312156103a0578081fd5b5035919050565b6001600160a01b0391909116815260200190565b60208082526026908201527f4f776e61626c653a206e6577206f776e657220697320746865207a65726f206160408201526564647265737360d01b606082015260800190565b6020808252818101527f4f776e61626c653a2063616c6c6572206973206e6f7420746865206f776e6572604082015260600190565b6020808252601f908201527f436f6e7472616374206973206c6f636b656420756e74696c2037206461797300604082015260600190565b60208082526023908201527f596f7520646f6e27742068617665207065726d697373696f6e20746f20756e6c6040820152626f636b60e81b606082015260800190565b90815260200190565b600082198211156104d857634e487b7160e01b81526011600452602481fd5b50019056fe8be0079c531659141344cd1fd0a4f28419497f9722a3daafe3b4186f6b6457e0a26469706673582212207d2f029925d8995346e8aedcae46b7bc945d37c8e0a7db74fbd4b2afd706b1eb64736f6c63430008000033",
  "linkReferences": {},
  "deployedLinkReferences": {}
}