{
  "_format": "hh-sol-artifact-1",
  "contractName": "VANITY",
  "sourceName": "contracts/Vanity.sol",
  "abi": [
    {
      "inputs": [],
      "stateMutability": "nonpayable",
      "type": "constructor"
    },
    {
      "anonymous": false,
      "inputs": [
        {
          "indexed": true,
          "internalType": "address",
          "name": "owner",
          "type": "address"
        },
        {
          "indexed": true,
          "internalType": "address",
          "name": "spender",
          "type": "address"
        },
        {
          "indexed": false,
          "internalType": "uint256",
          "name": "value",
          "type": "uint256"
        }
      ],
      "name": "Approval",
      "type": "event"
    },
    {
      "anonymous": false,
      "inputs": [
        {
          "indexed": true,
          "internalType": "address",
          "name": "previousOwner",
          "type": "address"
        },
        {
          "indexed": true,
          "internalType": "address",
          "name": "newOwner",
          "type": "address"
        }
      ],
      "name": "OwnershipTransferred",
      "type": "event"
    },
    {
      "anonymous": false,
      "inputs": [
        {
          "indexed": true,
          "internalType": "address",
          "name": "to",
          "type": "address"
        },
        {
          "indexed": false,
          "internalType": "uint256",
          "name": "amount",
          "type": "uint256"
        }
      ],
      "name": "Purchase",
      "type": "event"
    },
    {
      "anonymous": false,
      "inputs": [
        {
          "indexed": false,
          "internalType": "uint256",
          "name": "tokensSwapped",
          "type": "uint256"
        },
        {
          "indexed": false,
          "internalType": "uint256",
          "name": "ethReceived",
          "type": "uint256"
        },
        {
          "indexed": false,
          "internalType": "uint256",
          "name": "tokensIntoLiqudity",
          "type": "uint256"
        }
      ],
      "name": "SwapAndLiquify",
      "type": "event"
    },
    {
      "anonymous": false,
      "inputs": [
        {
          "indexed": false,
          "internalType": "bool",
          "name": "enabled",
          "type": "bool"
        }
      ],
      "name": "SwapAndLiquifyEnabledUpdated",
      "type": "event"
    },
    {
      "anonymous": false,
      "inputs": [
        {
          "indexed": true,
          "internalType": "address",
          "name": "from",
          "type": "address"
        },
        {
          "indexed": true,
          "internalType": "address",
          "name": "to",
          "type": "address"
        },
        {
          "indexed": false,
          "internalType": "uint256",
          "name": "value",
          "type": "uint256"
        }
      ],
      "name": "Transfer",
      "type": "event"
    },
    {
      "inputs": [
        {
          "internalType": "uint256",
          "name": "Amount",
          "type": "uint256"
        }
      ],
      "name": "AmountPeopleHodl4Sell",
      "outputs": [],
      "stateMutability": "nonpayable",
      "type": "function"
    },
    {
      "inputs": [
        {
          "internalType": "address",
          "name": "MarketingWalletr",
          "type": "address"
        }
      ],
      "name": "ChangeMarketingWallet",
      "outputs": [],
      "stateMutability": "nonpayable",
      "type": "function"
    },
    {
      "inputs": [],
      "name": "MarketingWallet",
      "outputs": [
        {
          "internalType": "address",
          "name": "",
          "type": "address"
        }
      ],
      "stateMutability": "view",
      "type": "function"
    },
    {
      "inputs": [],
      "name": "_BurnFee",
      "outputs": [
        {
          "internalType": "uint256",
          "name": "",
          "type": "uint256"
        }
      ],
      "stateMutability": "view",
      "type": "function"
    },
    {
      "inputs": [],
      "name": "_MarketingFee",
      "outputs": [
        {
          "internalType": "uint256",
          "name": "",
          "type": "uint256"
        }
      ],
      "stateMutability": "view",
      "type": "function"
    },
    {
      "inputs": [],
      "name": "_liquidityFee",
      "outputs": [
        {
          "internalType": "uint256",
          "name": "",
          "type": "uint256"
        }
      ],
      "stateMutability": "view",
      "type": "function"
    },
    {
      "inputs": [],
      "name": "_maxTxAmount",
      "outputs": [
        {
          "internalType": "uint256",
          "name": "",
          "type": "uint256"
        }
      ],
      "stateMutability": "view",
      "type": "function"
    },
    {
      "inputs": [],
      "name": "_owner",
      "outputs": [
        {
          "internalType": "address",
          "name": "",
          "type": "address"
        }
      ],
      "stateMutability": "view",
      "type": "function"
    },
    {
      "inputs": [],
      "name": "_taxFee",
      "outputs": [
        {
          "internalType": "uint256",
          "name": "",
          "type": "uint256"
        }
      ],
      "stateMutability": "view",
      "type": "function"
    },
    {
      "inputs": [
        {
          "internalType": "address",
          "name": "owner",
          "type": "address"
        },
        {
          "internalType": "address",
          "name": "spender",
          "type": "address"
        }
      ],
      "name": "allowance",
      "outputs": [
        {
          "internalType": "uint256",
          "name": "",
          "type": "uint256"
        }
      ],
      "stateMutability": "view",
      "type": "function"
    },
    {
      "inputs": [
        {
          "internalType": "address",
          "name": "spender",
          "type": "address"
        },
        {
          "internalType": "uint256",
          "name": "amount",
          "type": "uint256"
        }
      ],
      "name": "approve",
      "outputs": [
        {
          "internalType": "bool",
          "name": "",
          "type": "bool"
        }
      ],
      "stateMutability": "nonpayable",
      "type": "function"
    },
    {
      "inputs": [
        {
          "internalType": "address",
          "name": "account",
          "type": "address"
        }
      ],
      "name": "balanceOf",
      "outputs": [
        {
          "internalType": "uint256",
          "name": "",
          "type": "uint256"
        }
      ],
      "stateMutability": "view",
      "type": "function"
    },
    {
      "inputs": [],
      "name": "decimals",
      "outputs": [
        {
          "internalType": "uint8",
          "name": "",
          "type": "uint8"
        }
      ],
      "stateMutability": "view",
      "type": "function"
    },
    {
      "inputs": [
        {
          "internalType": "address",
          "name": "spender",
          "type": "address"
        },
        {
          "internalType": "uint256",
          "name": "subtractedValue",
          "type": "uint256"
        }
      ],
      "name": "decreaseAllowance",
      "outputs": [
        {
          "internalType": "bool",
          "name": "",
          "type": "bool"
        }
      ],
      "stateMutability": "nonpayable",
      "type": "function"
    },
    {
      "inputs": [
        {
          "internalType": "address",
          "name": "account",
          "type": "address"
        }
      ],
      "name": "excludeFromFee",
      "outputs": [],
      "stateMutability": "nonpayable",
      "type": "function"
    },
    {
      "inputs": [
        {
          "internalType": "address",
          "name": "account",
          "type": "address"
        }
      ],
      "name": "excludeFromReward",
      "outputs": [],
      "stateMutability": "nonpayable",
      "type": "function"
    },
    {
      "inputs": [],
      "name": "geUnlockTime",
      "outputs": [
        {
          "internalType": "uint256",
          "name": "",
          "type": "uint256"
        }
      ],
      "stateMutability": "view",
      "type": "function"
    },
    {
      "inputs": [
        {
          "internalType": "address",
          "name": "account",
          "type": "address"
        }
      ],
      "name": "includeInFee",
      "outputs": [],
      "stateMutability": "nonpayable",
      "type": "function"
    },
    {
      "inputs": [
        {
          "internalType": "address",
          "name": "account",
          "type": "address"
        }
      ],
      "name": "includeInReward",
      "outputs": [],
      "stateMutability": "nonpayable",
      "type": "function"
    },
    {
      "inputs": [
        {
          "internalType": "address",
          "name": "spender",
          "type": "address"
        },
        {
          "internalType": "uint256",
          "name": "addedValue",
          "type": "uint256"
        }
      ],
      "name": "increaseAllowance",
      "outputs": [
        {
          "internalType": "bool",
          "name": "",
          "type": "bool"
        }
      ],
      "stateMutability": "nonpayable",
      "type": "function"
    },
    {
      "inputs": [
        {
          "internalType": "address",
          "name": "account",
          "type": "address"
        }
      ],
      "name": "isExcludedFromFee",
      "outputs": [
        {
          "internalType": "bool",
          "name": "",
          "type": "bool"
        }
      ],
      "stateMutability": "view",
      "type": "function"
    },
    {
      "inputs": [
        {
          "internalType": "address",
          "name": "account",
          "type": "address"
        }
      ],
      "name": "isExcludedFromReward",
      "outputs": [
        {
          "internalType": "bool",
          "name": "",
          "type": "bool"
        }
      ],
      "stateMutability": "view",
      "type": "function"
    },
    {
      "inputs": [
        {
          "internalType": "uint256",
          "name": "time",
          "type": "uint256"
        }
      ],
      "name": "lock",
      "outputs": [],
      "stateMutability": "nonpayable",
      "type": "function"
    },
    {
      "inputs": [],
      "name": "name",
      "outputs": [
        {
          "internalType": "string",
          "name": "",
          "type": "string"
        }
      ],
      "stateMutability": "view",
      "type": "function"
    },
    {
      "inputs": [],
      "name": "owner",
      "outputs": [
        {
          "internalType": "address",
          "name": "",
          "type": "address"
        }
      ],
      "stateMutability": "view",
      "type": "function"
    },
    {
      "inputs": [
        {
          "internalType": "uint256",
          "name": "tAmount",
          "type": "uint256"
        },
        {
          "internalType": "bool",
          "name": "deductTransferFee",
          "type": "bool"
        }
      ],
      "name": "reflectionFromToken",
      "outputs": [
        {
          "internalType": "uint256",
          "name": "",
          "type": "uint256"
        }
      ],
      "stateMutability": "view",
      "type": "function"
    },
    {
      "inputs": [],
      "name": "renounceOwnership",
      "outputs": [],
      "stateMutability": "nonpayable",
      "type": "function"
    },
    {
      "inputs": [
        {
          "internalType": "uint256",
          "name": "Burn",
          "type": "uint256"
        }
      ],
      "name": "setBurnFeePercent",
      "outputs": [],
      "stateMutability": "nonpayable",
      "type": "function"
    },
    {
      "inputs": [
        {
          "internalType": "uint256",
          "name": "liquidityFee",
          "type": "uint256"
        }
      ],
      "name": "setLiquidityFeePercent",
      "outputs": [],
      "stateMutability": "nonpayable",
      "type": "function"
    },
    {
      "inputs": [
        {
          "internalType": "uint256",
          "name": "MarketingFee",
          "type": "uint256"
        }
      ],
      "name": "setMarketingFeePercent",
      "outputs": [],
      "stateMutability": "nonpayable",
      "type": "function"
    },
    {
      "inputs": [
        {
          "internalType": "uint256",
          "name": "maxTx",
          "type": "uint256"
        }
      ],
      "name": "setMaxTx",
      "outputs": [],
      "stateMutability": "nonpayable",
      "type": "function"
    },
    {
      "inputs": [
        {
          "internalType": "address",
          "name": "router",
          "type": "address"
        }
      ],
      "name": "setRouter",
      "outputs": [],
      "stateMutability": "nonpayable",
      "type": "function"
    },
    {
      "inputs": [
        {
          "internalType": "bool",
          "name": "_enabled",
          "type": "bool"
        }
      ],
      "name": "setSwapAndLiquifyEnabled",
      "outputs": [],
      "stateMutability": "nonpayable",
      "type": "function"
    },
    {
      "inputs": [
        {
          "internalType": "uint256",
          "name": "taxFee",
          "type": "uint256"
        }
      ],
      "name": "setTaxFeePercent",
      "outputs": [],
      "stateMutability": "nonpayable",
      "type": "function"
    },
    {
      "inputs": [
        {
          "internalType": "uint256",
          "name": "LP2Sell",
          "type": "uint256"
        }
      ],
      "name": "settoken2LP",
      "outputs": [],
      "stateMutability": "nonpayable",
      "type": "function"
    },
    {
      "inputs": [],
      "name": "swapAndLiquifyEnabled",
      "outputs": [
        {
          "internalType": "bool",
          "name": "",
          "type": "bool"
        }
      ],
      "stateMutability": "view",
      "type": "function"
    },
    {
      "inputs": [],
      "name": "symbol",
      "outputs": [
        {
          "internalType": "string",
          "name": "",
          "type": "string"
        }
      ],
      "stateMutability": "view",
      "type": "function"
    },
    {
      "inputs": [
        {
          "internalType": "uint256",
          "name": "rAmount",
          "type": "uint256"
        }
      ],
      "name": "tokenFromReflection",
      "outputs": [
        {
          "internalType": "uint256",
          "name": "",
          "type": "uint256"
        }
      ],
      "stateMutability": "view",
      "type": "function"
    },
    {
      "inputs": [],
      "name": "totalFees",
      "outputs": [
        {
          "internalType": "uint256",
          "name": "",
          "type": "uint256"
        }
      ],
      "stateMutability": "view",
      "type": "function"
    },
    {
      "inputs": [],
      "name": "totalSupply",
      "outputs": [
        {
          "internalType": "uint256",
          "name": "",
          "type": "uint256"
        }
      ],
      "stateMutability": "view",
      "type": "function"
    },
    {
      "inputs": [
        {
          "internalType": "address",
          "name": "recipient",
          "type": "address"
        },
        {
          "internalType": "uint256",
          "name": "amount",
          "type": "uint256"
        }
      ],
      "name": "transfer",
      "outputs": [
        {
          "internalType": "bool",
          "name": "",
          "type": "bool"
        }
      ],
      "stateMutability": "nonpayable",
      "type": "function"
    },
    {
      "inputs": [
        {
          "internalType": "address",
          "name": "sender",
          "type": "address"
        },
        {
          "internalType": "address",
          "name": "recipient",
          "type": "address"
        },
        {
          "internalType": "uint256",
          "name": "amount",
          "type": "uint256"
        }
      ],
      "name": "transferFrom",
      "outputs": [
        {
          "internalType": "bool",
          "name": "",
          "type": "bool"
        }
      ],
      "stateMutability": "nonpayable",
      "type": "function"
    },
    {
      "inputs": [
        {
          "internalType": "address",
          "name": "newOwner",
          "type": "address"
        }
      ],
      "name": "transferOwnership",
      "outputs": [],
      "stateMutability": "nonpayable",
      "type": "function"
    },
    {
      "inputs": [],
      "name": "uniswapV2Pair",
      "outputs": [
        {
          "internalType": "address",
          "name": "",
          "type": "address"
        }
      ],
      "stateMutability": "view",
      "type": "function"
    },
    {
      "inputs": [],
      "name": "uniswapV2Router",
      "outputs": [
        {
          "internalType": "contract IUniswapV2Router02",
          "name": "",
          "type": "address"
        }
      ],
      "stateMutability": "view",
      "type": "function"
    },
    {
      "inputs": [],
      "name": "unlock",
      "outputs": [],
      "stateMutability": "nonpayable",
      "type": "function"
    },
    {
      "stateMutability": "payable",
      "type": "receive"
    }
  ],
  "bytecode": "0x6080604052600080546001600160a01b031916738a6aae4b05601cde4cecbb99941f724d7292867b179055678ac7230489e80000600a819055620000469060001962000589565b620000549060001962000528565b600b556040805180820190915260068082526556414e49545960d01b60209092019182526200008691600d916200042f565b5060408051808201909152600380825262564e5960e81b6020909201918252620000b391600e916200042f565b50600f805460ff1916600917905560046010819055601155600260138190556014819055601581905560168190556017819055601855601980546001600160a01b031990811673fee0fee02fd7472ba31eb8d25ba99066e139c11017909155601a805490911661dead179055662386f26fc10000601d819055601e5567011c37937e080000601f556020805461ff0019166101001790553480156200015757600080fd5b50600b54600360006200016962000420565b6001600160a01b03166001600160a01b03168152602001908152602001600020819055506000739ac64cc6e4415144c455bd8e4837fea55603e5c39050806001600160a01b031663c45a01556040518163ffffffff1660e01b815260040160206040518083038186803b158015620001e057600080fd5b505afa158015620001f5573d6000803e3d6000fd5b505050506040513d601f19601f820116820180604052508101906200021b9190620004d5565b6001600160a01b031663c9c6539630836001600160a01b031663ad5c46486040518163ffffffff1660e01b815260040160206040518083038186803b1580156200026457600080fd5b505afa15801562000279573d6000803e3d6000fd5b505050506040513d601f19601f820116820180604052508101906200029f9190620004d5565b6040518363ffffffff1660e01b8152600401620002be92919062000505565b602060405180830381600087803b158015620002d957600080fd5b505af1158015620002ee573d6000803e3d6000fd5b505050506040513d601f19601f82011682018060405250810190620003149190620004d5565b601c80546001600160a01b03199081166001600160a01b0393841617909155601b80549091169183169190911790556001600760006200035362000420565b6001600160a01b03908116825260208083019390935260409182016000908120805495151560ff1996871617905530815260078452828120805486166001908117909155601954831682528382208054871682179055601a549092168152600890935291208054909216179055620003ca62000420565b6001600160a01b031660006001600160a01b03167fddf252ad1be2c89b69c2b068fc378daa952ba7f163c4a11628f55a4df523b3ef600a546040516200041191906200051f565b60405180910390a350620005aa565b6000546001600160a01b031690565b8280546200043d906200054c565b90600052602060002090601f016020900481019282620004615760008555620004ac565b82601f106200047c57805160ff1916838001178555620004ac565b82800160010185558215620004ac579182015b82811115620004ac5782518255916020019190600101906200048f565b50620004ba929150620004be565b5090565b5b80821115620004ba5760008155600101620004bf565b600060208284031215620004e7578081fd5b81516001600160a01b0381168114620004fe578182fd5b9392505050565b6001600160a01b0392831681529116602082015260400190565b90815260200190565b6000828210156200054757634e487b7160e01b81526011600452602481fd5b500390565b6002810460018216806200056157607f821691505b602082108114156200058357634e487b7160e01b600052602260045260246000fd5b50919050565b600082620005a557634e487b7160e01b81526012600452602481fd5b500690565b61313c80620005ba6000396000f3fe6080604052600436106102815760003560e01c8063715018a61161014f578063b2bdfa7b116100c1578063cea269581161007a578063cea2695814610713578063dd46706414610733578063dd62ed3e14610753578063e4a80d7214610773578063ea2f0b3714610788578063f2fde38b146107a857610288565b8063b2bdfa7b14610669578063b6c523241461067e578063bc33718214610693578063c079dd04146106b3578063c0d78655146106d3578063c49b9a80146106f357610288565b80638da5cb5b116101135780638da5cb5b146105ca5780638ee88c53146105df57806395d89b41146105ff578063a457c2d714610614578063a69df4b514610634578063a9059cbb1461064957610288565b8063715018a61461054057806374cd26fd146105555780637d1db4a514610575578063817d4bff1461058a57806388f82020146105aa57610288565b806339509351116101f35780634a74bb02116101ac5780634a74bb02146104a15780634c1d019b146104b657806352390c02146104cb5780635342acb4146104eb5780636bc87c3a1461050b57806370a082311461052057610288565b806339509351146103f75780633b124fe714610417578063437823ec1461042c5780634549b0391461044c578063457c194c1461046c57806349bd5a5e1461048c57610288565b806318160ddd1161024557806318160ddd1461034b57806323b872dd146103605780632598cdb2146103805780632d83811914610395578063313ce567146103b55780633685d419146103d757610288565b8063061c82d01461028d57806306fdde03146102af578063095ea7b3146102da57806313114a9d146103075780631694505e1461032957610288565b3661028857005b600080fd5b34801561029957600080fd5b506102ad6102a83660046129e5565b6107c8565b005b3480156102bb57600080fd5b506102c461080b565b6040516102d19190612ac9565b60405180910390f35b3480156102e657600080fd5b506102fa6102f53660046129a0565b61089d565b6040516102d19190612abe565b34801561031357600080fd5b5061031c6108bb565b6040516102d19190612f10565b34801561033557600080fd5b5061033e6108c1565b6040516102d19190612a55565b34801561035757600080fd5b5061031c6108d0565b34801561036c57600080fd5b506102fa61037b366004612960565b6108d6565b34801561038c57600080fd5b5061033e61095d565b3480156103a157600080fd5b5061031c6103b03660046129e5565b61096c565b3480156103c157600080fd5b506103ca6109af565b6040516102d19190612f9f565b3480156103e357600080fd5b506102ad6103f23660046128f0565b6109b8565b34801561040357600080fd5b506102fa6104123660046129a0565b610b83565b34801561042357600080fd5b5061031c610bd1565b34801561043857600080fd5b506102ad6104473660046128f0565b610bd7565b34801561045857600080fd5b5061031c6104673660046129fd565b610c30565b34801561047857600080fd5b506102ad6104873660046129e5565b610c8f565b34801561049857600080fd5b5061033e610cc9565b3480156104ad57600080fd5b506102fa610cd8565b3480156104c257600080fd5b5061031c610ce6565b3480156104d757600080fd5b506102ad6104e63660046128f0565b610cec565b3480156104f757600080fd5b506102fa6105063660046128f0565b610e1a565b34801561051757600080fd5b5061031c610e38565b34801561052c57600080fd5b5061031c61053b3660046128f0565b610e3e565b34801561054c57600080fd5b506102ad610ea0565b34801561056157600080fd5b506102ad6105703660046129e5565b610f0d565b34801561058157600080fd5b5061031c610f47565b34801561059657600080fd5b506102ad6105a53660046128f0565b610f4d565b3480156105b657600080fd5b506102fa6105c53660046128f0565b610fa4565b3480156105d657600080fd5b5061033e610fc2565b3480156105eb57600080fd5b506102ad6105fa3660046129e5565b610fd1565b34801561060b57600080fd5b506102c461100b565b34801561062057600080fd5b506102fa61062f3660046129a0565b61101a565b34801561064057600080fd5b506102ad611082565b34801561065557600080fd5b506102fa6106643660046129a0565b61111c565b34801561067557600080fd5b5061033e611130565b34801561068a57600080fd5b5061031c61113f565b34801561069f57600080fd5b506102ad6106ae3660046129e5565b611145565b3480156106bf57600080fd5b506102ad6106ce3660046129e5565b61117f565b3480156106df57600080fd5b506102ad6106ee3660046128f0565b6111b9565b3480156106ff57600080fd5b506102ad61070e3660046129cb565b611385565b34801561071f57600080fd5b506102ad61072e3660046129e5565b611408565b34801561073f57600080fd5b506102ad61074e3660046129e5565b611442565b34801561075f57600080fd5b5061031c61076e366004612928565b6114d2565b34801561077f57600080fd5b5061031c6114fd565b34801561079457600080fd5b506102ad6107a33660046128f0565b611503565b3480156107b457600080fd5b506102ad6107c33660046128f0565b611559565b6107d06115fd565b6000546001600160a01b039081169116146108065760405162461bcd60e51b81526004016107fd90612d93565b60405180910390fd5b601055565b6060600d805461081a9061301b565b80601f01602080910402602001604051908101604052809291908181526020018280546108469061301b565b80156108935780601f1061086857610100808354040283529160200191610893565b820191906000526020600020905b81548152906001019060200180831161087657829003601f168201915b5050505050905090565b60006108b16108aa6115fd565b8484611601565b5060015b92915050565b600c5490565b601b546001600160a01b031681565b600a5490565b60006108e38484846116b5565b610953846108ef6115fd565b61094e8560405180606001604052806028815260200161309a602891396001600160a01b038a1660009081526006602052604081209061092d6115fd565b6001600160a01b031681526020810191909152604001600020549190611937565b611601565b5060019392505050565b6019546001600160a01b031681565b6000600b548211156109905760405162461bcd60e51b81526004016107fd90612ba5565b600061099a611971565b90506109a68382611994565b9150505b919050565b600f5460ff1690565b6109c06115fd565b6000546001600160a01b039081169116146109ed5760405162461bcd60e51b81526004016107fd90612d93565b6001600160a01b03811660009081526008602052604090205460ff16610a255760405162461bcd60e51b81526004016107fd90612c6c565b60005b600954811015610b7f57816001600160a01b031660098281548110610a5d57634e487b7160e01b600052603260045260246000fd5b6000918252602090912001546001600160a01b03161415610b6d5760098054610a8890600190613004565b81548110610aa657634e487b7160e01b600052603260045260246000fd5b600091825260209091200154600980546001600160a01b039092169183908110610ae057634e487b7160e01b600052603260045260246000fd5b600091825260208083209190910180546001600160a01b0319166001600160a01b039485161790559184168152600482526040808220829055600890925220805460ff191690556009805480610b4657634e487b7160e01b600052603160045260246000fd5b600082815260209020810160001990810180546001600160a01b0319169055019055610b7f565b80610b7781613050565b915050610a28565b5050565b60006108b1610b906115fd565b8461094e8560066000610ba16115fd565b6001600160a01b03908116825260208083019390935260409182016000908120918c1681529252902054906119dd565b60105481565b610bdf6115fd565b6000546001600160a01b03908116911614610c0c5760405162461bcd60e51b81526004016107fd90612d93565b6001600160a01b03166000908152600760205260409020805460ff19166001179055565b6000600a54831115610c545760405162461bcd60e51b81526004016107fd90612ca3565b81610c74576000610c6484611a0c565b509496506108b595505050505050565b6000610c7f84611a0c565b509396506108b595505050505050565b610c976115fd565b6000546001600160a01b03908116911614610cc45760405162461bcd60e51b81526004016107fd90612d93565b601355565b601c546001600160a01b031681565b602054610100900460ff1681565b60135481565b610cf46115fd565b6000546001600160a01b03908116911614610d215760405162461bcd60e51b81526004016107fd90612d93565b6001600160a01b03811660009081526008602052604090205460ff1615610d5a5760405162461bcd60e51b81526004016107fd90612c6c565b6001600160a01b03811660009081526003602052604090205415610db4576001600160a01b038116600090815260036020526040902054610d9a9061096c565b6001600160a01b0382166000908152600460205260409020555b6001600160a01b03166000818152600860205260408120805460ff191660019081179091556009805491820181559091527f6e1540171b6c0c960b71a7020d9f60077f6af931a8bbf590da0223dacf75c7af0180546001600160a01b0319169091179055565b6001600160a01b031660009081526007602052604090205460ff1690565b60175481565b6001600160a01b03811660009081526008602052604081205460ff1615610e7e57506001600160a01b0381166000908152600460205260409020546109aa565b6001600160a01b0382166000908152600360205260409020546108b59061096c565b610ea86115fd565b6000546001600160a01b03908116911614610ed55760405162461bcd60e51b81526004016107fd90612d93565b600080546040516001600160a01b03909116906000805160206130c2833981519152908390a3600080546001600160a01b0319169055565b610f156115fd565b6000546001600160a01b03908116911614610f425760405162461bcd60e51b81526004016107fd90612d93565b601f55565b601e5481565b610f556115fd565b6000546001600160a01b03908116911614610f825760405162461bcd60e51b81526004016107fd90612d93565b601980546001600160a01b0319166001600160a01b0392909216919091179055565b6001600160a01b031660009081526008602052604090205460ff1690565b6000546001600160a01b031690565b610fd96115fd565b6000546001600160a01b039081169116146110065760405162461bcd60e51b81526004016107fd90612d93565b601755565b6060600e805461081a9061301b565b60006108b16110276115fd565b8461094e856040518060600160405280602581526020016130e260259139600660006110516115fd565b6001600160a01b03908116825260208083019390935260409182016000908120918d16815292529020549190611937565b6001546001600160a01b031633146110ac5760405162461bcd60e51b81526004016107fd90612ecd565b60025442116110cd5760405162461bcd60e51b81526004016107fd90612e54565b600154600080546040516001600160a01b0393841693909116916000805160206130c283398151915291a3600154600080546001600160a01b0319166001600160a01b03909216919091179055565b60006108b16111296115fd565b84846116b5565b6000546001600160a01b031681565b60025490565b61114d6115fd565b6000546001600160a01b0390811691161461117a5760405162461bcd60e51b81526004016107fd90612d93565b601e55565b6111876115fd565b6000546001600160a01b039081169116146111b45760405162461bcd60e51b81526004016107fd90612d93565b601d55565b6111c16115fd565b6000546001600160a01b039081169116146111ee5760405162461bcd60e51b81526004016107fd90612d93565b6000819050806001600160a01b031663c45a01556040518163ffffffff1660e01b815260040160206040518083038186803b15801561122c57600080fd5b505afa158015611240573d6000803e3d6000fd5b505050506040513d601f19601f82011682018060405250810190611264919061290c565b6001600160a01b031663c9c6539630836001600160a01b031663ad5c46486040518163ffffffff1660e01b815260040160206040518083038186803b1580156112ac57600080fd5b505afa1580156112c0573d6000803e3d6000fd5b505050506040513d601f19601f820116820180604052508101906112e4919061290c565b6040518363ffffffff1660e01b8152600401611301929190612a69565b602060405180830381600087803b15801561131b57600080fd5b505af115801561132f573d6000803e3d6000fd5b505050506040513d601f19601f82011682018060405250810190611353919061290c565b601c80546001600160a01b039283166001600160a01b031991821617909155601b805493909216921691909117905550565b61138d6115fd565b6000546001600160a01b039081169116146113ba5760405162461bcd60e51b81526004016107fd90612d93565b6020805461ff001916610100831515021790556040517f53726dfcaf90650aa7eb35524f4d3220f07413c8d6cb404cc8c18bf5591bc159906113fd908390612abe565b60405180910390a150565b6114106115fd565b6000546001600160a01b0390811691161461143d5760405162461bcd60e51b81526004016107fd90612d93565b601555565b61144a6115fd565b6000546001600160a01b039081169116146114775760405162461bcd60e51b81526004016107fd90612d93565b60008054600180546001600160a01b03199081166001600160a01b038416179091551690556114a68142612fad565b600255600080546040516001600160a01b03909116906000805160206130c2833981519152908390a350565b6001600160a01b03918216600090815260066020908152604080832093909416825291909152205490565b60155481565b61150b6115fd565b6000546001600160a01b039081169116146115385760405162461bcd60e51b81526004016107fd90612d93565b6001600160a01b03166000908152600760205260409020805460ff19169055565b6115616115fd565b6000546001600160a01b0390811691161461158e5760405162461bcd60e51b81526004016107fd90612d93565b6001600160a01b0381166115b45760405162461bcd60e51b81526004016107fd90612bef565b600080546040516001600160a01b03808516939216916000805160206130c283398151915291a3600080546001600160a01b0319166001600160a01b0392909216919091179055565b3390565b6001600160a01b0383166116275760405162461bcd60e51b81526004016107fd90612b61565b6001600160a01b03821661164d5760405162461bcd60e51b81526004016107fd90612e8b565b6001600160a01b0380841660008181526006602090815260408083209487168084529490915290819020849055517f8c5be1e5ebec7d5bd14f71427d1e84f3dd0314c0f7b2291e5b200ac8c7c3b925906116a8908590612f10565b60405180910390a3505050565b6001600160a01b0383166116db5760405162461bcd60e51b81526004016107fd90612b1c565b6001600160a01b0382166117015760405162461bcd60e51b81526004016107fd90612e11565b600081116117215760405162461bcd60e51b81526004016107fd90612dc8565b611729610fc2565b6001600160a01b0316836001600160a01b031614158015611763575061174d610fc2565b6001600160a01b0316826001600160a01b031614155b1561178a57601e5481111561178a5760405162461bcd60e51b81526004016107fd90612cda565b601c546001600160a01b0383811691161480156117c057506117aa610fc2565b6001600160a01b0316836001600160a01b031614155b80156117d65750601f546117d384610e3e565b10155b1561185a576117ef600a6117e985610e3e565b90611994565b8111156117fb57600080fd5b6001600160a01b0383166000908152600560205260409020544210156118335760405162461bcd60e51b81526004016107fd90612d63565b61184042620151806119dd565b6001600160a01b0384166000908152600560205260409020555b600061186530610e3e565b601d549091508110801590819061187f575060205460ff16155b80156118995750601c546001600160a01b03868116911614155b80156118ac5750602054610100900460ff165b156118bf57601d5491506118bf82611a67565b6012805460ff191660011790556001600160a01b03851660009081526007602052604090205460ff168061190b57506001600160a01b03841660009081526007602052604090205460ff165b1561191b576012805460ff191690555b6012546119309086908690869060ff16611aff565b5050505050565b6000818484111561195b5760405162461bcd60e51b81526004016107fd9190612ac9565b5060006119688486613004565b95945050505050565b600080600061197e611c73565b909250905061198d8282611994565b9250505090565b60006119d683836040518060400160405280601a81526020017f536166654d6174683a206469766973696f6e206279207a65726f000000000000815250611e30565b9392505050565b6000806119ea8385612fad565b9050838110156119d65760405162461bcd60e51b81526004016107fd90612c35565b6000806000806000806000806000806000611a268c611e5e565b93509350935093506000806000611a478f878688611a42611971565b611eb3565b919f509d509b509599509397509195509350505050919395979092949650565b6020805460ff191660011790556000611a81826002611994565b90506000611a8f8383611f15565b905047611a9b83611f57565b6000611aa74783611f15565b9050611ab383826120dc565b7f17bbfb9a6069321b6ded73bd96327c9e6b7212a5cd51ff219cd61370acafb561848285604051611ae693929190612f89565b60405180910390a150506020805460ff19169055505050565b80611b0c57611b0c612187565b6001600160a01b03841660009081526008602052604090205460ff168015611b4d57506001600160a01b03831660009081526008602052604090205460ff16155b15611b6257611b5d8484846121e6565b611c60565b6001600160a01b03841660009081526008602052604090205460ff16158015611ba357506001600160a01b03831660009081526008602052604090205460ff165b15611bb357611b5d8484846123d3565b6001600160a01b03841660009081526008602052604090205460ff16158015611bf557506001600160a01b03831660009081526008602052604090205460ff16155b15611c0557611b5d848484612492565b6001600160a01b03841660009081526008602052604090205460ff168015611c4557506001600160a01b03831660009081526008602052604090205460ff165b15611c5557611b5d8484846124ec565b611c60848484612492565b80611c6d57611c6d612575565b50505050565b600b54600a546000918291825b600954811015611dfe57826003600060098481548110611cb057634e487b7160e01b600052603260045260246000fd5b60009182526020808320909101546001600160a01b031683528201929092526040019020541180611d295750816004600060098481548110611d0257634e487b7160e01b600052603260045260246000fd5b60009182526020808320909101546001600160a01b03168352820192909252604001902054115b15611d4057600b54600a5494509450505050611e2c565b611d946003600060098481548110611d6857634e487b7160e01b600052603260045260246000fd5b60009182526020808320909101546001600160a01b031683528201929092526040019020548490611f15565b9250611dea6004600060098481548110611dbe57634e487b7160e01b600052603260045260246000fd5b60009182526020808320909101546001600160a01b031683528201929092526040019020548390611f15565b915080611df681613050565b915050611c80565b50600a54600b54611e0e91611994565b821015611e2657600b54600a54935093505050611e2c565b90925090505b9091565b60008183611e515760405162461bcd60e51b81526004016107fd9190612ac9565b5060006119688486612fc5565b6000806000806000611e6f8661258f565b90506000611e7c876125ab565b90506000611e89886125d3565b90506000611ea382611e9d85818d89611f15565b90611f15565b9993985091965094509092505050565b6000808080611ec289866125ef565b90506000611ed089876125ef565b90506000611ede88886125ef565b90506000611eec8a896125ef565b90506000611f0082611e9d85818989611f15565b949d949c50929a509298505050505050505050565b60006119d683836040518060400160405280601e81526020017f536166654d6174683a207375627472616374696f6e206f766572666c6f770000815250611937565b6040805160028082526060820183526000926020830190803683370190505090503081600081518110611f9a57634e487b7160e01b600052603260045260246000fd5b6001600160a01b03928316602091820292909201810191909152601b54604080516315ab88c960e31b81529051919093169263ad5c4648926004808301939192829003018186803b158015611fee57600080fd5b505afa158015612002573d6000803e3d6000fd5b505050506040513d601f19601f82011682018060405250810190612026919061290c565b8160018151811061204757634e487b7160e01b600052603260045260246000fd5b6001600160a01b039283166020918202929092010152601b5461206d9130911684611601565b601b5460405163791ac94760e01b81526001600160a01b039091169063791ac947906120a6908590600090869030904290600401612f19565b600060405180830381600087803b1580156120c057600080fd5b505af11580156120d4573d6000803e3d6000fd5b505050505050565b601b546120f49030906001600160a01b031684611601565b601b546001600160a01b031663f305d719823085600080612113610fc2565b426040518863ffffffff1660e01b815260040161213596959493929190612a83565b6060604051808303818588803b15801561214e57600080fd5b505af1158015612162573d6000803e3d6000fd5b50505050506040513d601f19601f820116820180604052508101906119309190612a28565b6010541580156121975750601754155b80156121a35750601354155b80156121af5750601554155b156121b9576121e4565b6010805460115560138054601455601580546016556017805460185560009384905591839055829055555b565b60008060008060008060006121fa88611a0c565b965096509650965096509650965061224088600460008d6001600160a01b03166001600160a01b0316815260200190815260200160002054611f1590919063ffffffff16565b6001600160a01b038b1660009081526004602090815260408083209390935560039052205461226f9088611f15565b6001600160a01b03808c1660009081526003602052604080822093909355908b168152205461229e90876119dd565b6001600160a01b038a166000908152600360205260409020556122c081612634565b6000806122cc846126bd565b915091506122da878661287d565b60125460ff161561237a576019546040516001600160a01b03918216918e16907fddf252ad1be2c89b69c2b068fc378daa952ba7f163c4a11628f55a4df523b3ef90612327908690612f10565b60405180910390a3601a546040516001600160a01b03918216918e16907fddf252ad1be2c89b69c2b068fc378daa952ba7f163c4a11628f55a4df523b3ef90612371908590612f10565b60405180910390a35b8a6001600160a01b03168c6001600160a01b03167fddf252ad1be2c89b69c2b068fc378daa952ba7f163c4a11628f55a4df523b3ef886040516123bd9190612f10565b60405180910390a3505050505050505050505050565b60008060008060008060006123e788611a0c565b965096509650965096509650965061242d87600360008d6001600160a01b03166001600160a01b0316815260200190815260200160002054611f1590919063ffffffff16565b6001600160a01b03808c16600090815260036020908152604080832094909455918c1681526004909152205461246390856119dd565b6001600160a01b038a1660009081526004602090815260408083209390935560039052205461229e90876119dd565b60008060008060008060006124a688611a0c565b965096509650965096509650965061226f87600360008d6001600160a01b03166001600160a01b0316815260200190815260200160002054611f1590919063ffffffff16565b600080600080600080600061250088611a0c565b965096509650965096509650965061254688600460008d6001600160a01b03166001600160a01b0316815260200190815260200160002054611f1590919063ffffffff16565b6001600160a01b038b1660009081526004602090815260408083209390935560039052205461242d9088611f15565b601154601055601454601355601654601555601854601755565b60006108b560646117e9601054856125ef90919063ffffffff16565b60006108b560646117e96125cc6015546013546119dd90919063ffffffff16565b85906125ef565b60006108b560646117e9601754856125ef90919063ffffffff16565b6000826125fe575060006108b5565b600061260a8385612fe5565b9050826126178583612fc5565b146119d65760405162461bcd60e51b81526004016107fd90612d22565b600061263e611971565b9050600061264c83836125ef565b3060009081526003602052604090205490915061266990826119dd565b3060009081526003602090815260408083209390935560089052205460ff16156126b857306000908152600460205260409020546126a790846119dd565b306000908152600460205260409020555b505050565b60008060006126ca611971565b905060006126d96013546128a1565b905060006126ec60646117e988856125ef565b905060006126fa82856125ef565b905060006127096015546128a1565b9050600061271c60646117e98b856125ef565b9050600061272a82886125ef565b6019546001600160a01b031660009081526003602052604090205490915061275290856119dd565b601980546001600160a01b03908116600090815260036020908152604080832095909555925490911681526008909152205460ff16156127cd576019546001600160a01b03166000908152600460205260409020546127b190866119dd565b6019546001600160a01b03166000908152600460205260409020555b601a546001600160a01b03166000908152600360205260409020546127f290826119dd565b601a80546001600160a01b03908116600090815260036020908152604080832095909555925490911681526008909152205460ff161561286d57601a546001600160a01b031660009081526004602052604090205461285190836119dd565b601a546001600160a01b03166000908152600460205260409020555b5092965091945050505050915091565b600b5461288a9083611f15565b600b55600c5461289a90826119dd565b600c555050565b6000806128bb6015546013546119dd90919063ffffffff16565b905080156128da576128d2816117e98560646125ef565b9150506109aa565b50919050565b803580151581146109aa57600080fd5b600060208284031215612901578081fd5b81356119d681613081565b60006020828403121561291d578081fd5b81516119d681613081565b6000806040838503121561293a578081fd5b823561294581613081565b9150602083013561295581613081565b809150509250929050565b600080600060608486031215612974578081fd5b833561297f81613081565b9250602084013561298f81613081565b929592945050506040919091013590565b600080604083850312156129b2578182fd5b82356129bd81613081565b946020939093013593505050565b6000602082840312156129dc578081fd5b6119d6826128e0565b6000602082840312156129f6578081fd5b5035919050565b60008060408385031215612a0f578182fd5b82359150612a1f602084016128e0565b90509250929050565b600080600060608486031215612a3c578283fd5b8351925060208401519150604084015190509250925092565b6001600160a01b0391909116815260200190565b6001600160a01b0392831681529116602082015260400190565b6001600160a01b039687168152602081019590955260408501939093526060840191909152909216608082015260a081019190915260c00190565b901515815260200190565b6000602080835283518082850152825b81811015612af557858101830151858201604001528201612ad9565b81811115612b065783604083870101525b50601f01601f1916929092016040019392505050565b60208082526025908201527f42455032303a207472616e736665722066726f6d20746865207a65726f206164604082015264647265737360d81b606082015260800190565b60208082526024908201527f42455032303a20617070726f76652066726f6d20746865207a65726f206164646040820152637265737360e01b606082015260800190565b6020808252602a908201527f416d6f756e74206d757374206265206c657373207468616e20746f74616c207260408201526965666c656374696f6e7360b01b606082015260800190565b60208082526026908201527f4f776e61626c653a206e6577206f776e657220697320746865207a65726f206160408201526564647265737360d01b606082015260800190565b6020808252601b908201527f536166654d6174683a206164646974696f6e206f766572666c6f770000000000604082015260600190565b6020808252601b908201527f4163636f756e7420697320616c7265616479206578636c756465640000000000604082015260600190565b6020808252601f908201527f416d6f756e74206d757374206265206c657373207468616e20737570706c7900604082015260600190565b60208082526028908201527f5472616e7366657220616d6f756e74206578636565647320746865206d6178546040820152673c20b6b7bab73a1760c11b606082015260800190565b60208082526021908201527f536166654d6174683a206d756c7469706c69636174696f6e206f766572666c6f6040820152607760f81b606082015260800190565b60208082526016908201527513db994814d95b1b0814195c8b51185e48131a5b5a5d60521b604082015260600190565b6020808252818101527f4f776e61626c653a2063616c6c6572206973206e6f7420746865206f776e6572604082015260600190565b60208082526029908201527f5472616e7366657220616d6f756e74206d7573742062652067726561746572206040820152687468616e207a65726f60b81b606082015260800190565b60208082526023908201527f42455032303a207472616e7366657220746f20746865207a65726f206164647260408201526265737360e81b606082015260800190565b6020808252601f908201527f436f6e7472616374206973206c6f636b656420756e74696c2037206461797300604082015260600190565b60208082526022908201527f42455032303a20617070726f766520746f20746865207a65726f206164647265604082015261737360f01b606082015260800190565b60208082526023908201527f596f7520646f6e27742068617665207065726d697373696f6e20746f20756e6c6040820152626f636b60e81b606082015260800190565b90815260200190565b600060a082018783526020878185015260a0604085015281875180845260c0860191508289019350845b81811015612f685784516001600160a01b031683529383019391830191600101612f43565b50506001600160a01b03969096166060850152505050608001529392505050565b9283526020830191909152604082015260600190565b60ff91909116815260200190565b60008219821115612fc057612fc061306b565b500190565b600082612fe057634e487b7160e01b81526012600452602481fd5b500490565b6000816000190483118215151615612fff57612fff61306b565b500290565b6000828210156130165761301661306b565b500390565b60028104600182168061302f57607f821691505b602082108114156128da57634e487b7160e01b600052602260045260246000fd5b60006000198214156130645761306461306b565b5060010190565b634e487b7160e01b600052601160045260246000fd5b6001600160a01b038116811461309657600080fd5b5056fe42455032303a207472616e7366657220616d6f756e74206578636565647320616c6c6f77616e63658be0079c531659141344cd1fd0a4f28419497f9722a3daafe3b4186f6b6457e042455032303a2064656372656173656420616c6c6f77616e63652062656c6f77207a65726fa264697066735822122040545969b90bbf0fb6f126a9f6cb329b7ad88789404903c6511d98429952b3fd64736f6c63430008000033",
  "linkReferences": {},
  "deployedLinkReferences": {}
}